:020000040000FA
:020000000828CE
:080008000B186C280B19692A82
:100010008316F0308600850187308100831212122A
:1000200092168601163084000030A6000A30A50022
:10003000A50B1B281F2826088000840A18282630B4
:1000400084000A30A500A50B26282A28260880004F
:10005000840A2328013096000130A3001630840062
:100060000130B4000B30B50024108222023085002C
:100070007D22023085007D22083085007D2282228B
:10008000003085007D220C3085007D2282220030E8
:1000900085007D22013085007D228222003085008E
:1000A0007D22063085007D228B018B158B168B17E8
:1000B000A92394224D23B322C122822282228523A6
:1000C0000615C023AE23C523B7236528FA308F0851
:1000D00000008F0B682808006620061E7628861E02
:1000E000D028061FEB29861F222AA429131A7D284F
:1000F00013197D28BE2806118611921E8828932385
:100100005B2312179212241C960A2418A30AA4290E
:10011000121F93289323622392171213241C960A0A
:100120002418A30AA429921F9E289323692312143A
:100130009213241C960A2418A30AA429121CA92885
:100140009323702392141210241C960A2418BB20A7
:10015000A429921C7D28932354239216A410921054
:10016000241CB5202418B820A429013096000800CA
:100170000130A3000800A30AA4140800121AC8281A
:100180008C2346239A234D23121606118615A42983
:100190009A2346238C234D23061586111212A42977
:1001A0001318ED28121A1514121E15109A2346233F
:1001B000CF22D622DD224D23E422EB228C234D23B5
:1001C000CF22D622DD22F222F922002313141212AA
:1001D000EA20A429861106150800931823299A23DA
:1001E0004623C122E422EB2207230E2315238C236E
:1001F0004D23C822F222F92231230E231523931412
:10020000121A9514121E95101212EA20A42913191D
:100210003D2924109A231C23F222F222B3224D23DB
:10022000EB2231238C234D235423A9234D2315186E
:100230001E29121A1515121E1511EA201315920106
:100240009216EA20A429151C072995180729131AC4
:1002500007299A234D23C82223232A23A9238C2349
:100260004D235423A9234D2313162414121A1515B4
:10027000121E15111212EA20A429931A5B29931950
:10028000A22995184329151D4B2115194F21951C9D
:100290005329951857291608163E84000800160899
:1002A0001B3E84000800151D5C2915196F29151DBA
:1002B000822915198F29A22900189C29A1230A3007
:1002C000160785007D223F23A621221422088000E4
:1002D0001608263E8400230880009316A4290018DF
:1002E0009C29A5230A30160785007D223F23A621DD
:1002F00022142208800016082B3E84002308800068
:100300009316A429001C9C29A1230A3016078500F6
:100310007D223823D421221022088000A229001C2B
:100320009C29A5230A30160785007D223823D42175
:10033000221022088000A2290614861106158222A6
:1003400082220610D821D6280B1009009A234D23AB
:100350003123E4220E230E234D234D238C234D23E2
:1003600077231518BD2915195B23151D54237E23EA
:100370007E234D234D23D4210800133085007D2298
:100380001519C7292308103E85007D22B729A41816
:10039000CF2923082307103E85007D22B729572344
:1003A0007E237E237E23BA29061186158222080029
:1003B00093101311931113129312951015119201AA
:1003C000A4019216013096000130A300163084007B
:1003D000061586110800F2219A23C023C5231510A3
:1003E000A4296528163084000030A6000A30A50034
:1003F0001310A50BFC290B2A26088000840AF92972
:10040000263084000A30A500A50B072A0B2A2608EF
:100410008000840A042AD8219A234D231C23152303
:10042000C122152300234D234D23AE238C234D23BE
:10043000C822F222EB2215234D234D234D23B7234F
:1004400082220800151CA429173084000930A50059
:100450000430B3000408B200B30B2F2A2415A50BF7
:10046000322A572A16300402B100263031078400A0
:10047000800B532A3B2A241D4022241947224E2A4E
:10048000A1230A30310785007D2238230800A523E7
:100490000530310785007D223823080032088400AA
:1004A00031078400001032088400840A2A2A9A2323
:1004B0004D23C82223232A23A9238C234D23BA2288
:1004C0002323C122C1221523C82282228222D821BD
:1004D000D62815187B2AB40B7B2AB50B7B2AF22170
:1004E000D8218101FF30B4000B30B5000614822200
:1004F00082220610D6280B110900861400008610EF
:100500008B220800FF308C0035308E008C0F862A3D
:100510008E0B862A0800FF3090000C309100900F5F
:100520008F2A910B8F2A0800143085007D22183005
:1005300085007D22143085007D221F3085007D22BC
:10054000153085007D22143085007D221430850011
:100550007D22153085007D22143085007D221C30DF
:1005600085007D220800143085007D221D30850025
:100570007D220800153085007D22103085007D2207
:100580000800153085007D22133085007D2208008B
:10059000143085007D22143085007D22080014303F
:1005A00085007D22133085007D22080014308500EF
:1005B0007D22183085007D220800143085007D22C0
:1005C0001B3085007D220800143085007D22193003
:1005D00085007D220800143085007D221E308500B4
:1005E0007D220800143085007D221F3085007D2289
:1005F0000800153085007D22153085007D22080019
:10060000153085007D22143085007D2208001430CD
:1006100085007D22173085007D220800143085007A
:100620007D221C3085007D220800143085007D224B
:10063000153085007D220800153085007D2212309E
:1006400085007D220800143085007D221130850050
:100650007D220800153085007D22193085007D221D
:100660000800143085007D22123085007D220800AC
:10067000123085007D221A3085007D22080012305C
:1006800085007D22133085007D220800133085000F
:100690007D221E3085007D220800123085007D22DB
:1006A000103085007D220800133085007D22113036
:1006B00085007D220800133085007D2212308500E0
:1006C0007D220800133085007D22133085007D22B5
:1006D0000800133085007D22143085007D2208003B
:1006E000133085007D22153085007D2208001230F0
:1006F00085007D22143085007D220800133085009E
:100700007D22103085007D220800003085007D228A
:10071000013085007D2208000C3085007D220030EC
:1007200085007D2208000C3085007D220130850087
:100730007D220800083085007D22003085007D2262
:100740000800083085007D2208000C3085007D22DD
:1007500008004D234D234D234D2308004D234D23E9
:10076000C1223823382338233823382308004D2367
:100770004D23C82238233823382338233823080050
:100780004623942254234D2308008C234D23942286
:060790005B234D2308006D
:00000001FF
